:02000000E82FE7
:100F52003F3406345B344F3466346D347D340734A9
:100F62007F346734831603138601831203138601C9
:100F72007308203E840083130008F500750883126D
:100F8200031386000630F2001330F100AD30F0009A
:100F9200F00BC92FF10BC92FF20BC92FD02F013043
:100FA200F3070318F40A0030F4077408803AFF00CC
:100FB20080307F02031DDF2F0A3073020318E22FF5
:100FC200E32FE42FB92FF301F401B92F0028A92749
:100FD200A000AA27A100AB27A200AC27A300AD273F
:100FE200A400AE27A500AF27A600B027A700B1270F
:0E0FF200A800B227A900F301F4018301B32F78
:02400E00293F48
:00000001FF
